:060000000A128A1180289B
:1000080003138312061F0E280B1003138316653083
:100018008F00090003138312861E18280B10031380
:10002800831655308F00090003138312061E2228F9
:100038000B100313831645308F0009000313831236
:10004800861D2C280B100313831635308F000900EA
:1000580003138312061D36280B100313831625304D
:100068008F00090003138312861C40280B1003130A
:10007800831615308F00090003138312061C4A28C3
:100088000B100313831603308F0009000B1C0900A3
:100098000B1003138312861F090003138316753090
:1000A8008F00031383128030870003138312090023
:100100008B0188308B000313831665308F00031337
:100110008312860103138316FF30860003178316AC
:100120008901031383160030950003138316FF30F3
:1001300096000313831287010313831687010317A5
:10014000831600308800031383128501031383167E
:10015000850103138312AF2001308506A928FF30E3
:10016000A100FF30A000A00BB328A10BB12808000C
:04400E00C400FF3FAC
:00000001FF
